{
  "contractName": "Bitbrowze",
  "abi": [
    {
      "inputs": [],
      "stateMutability": "nonpayable",
      "type": "constructor"
    },
    {
      "anonymous": false,
      "inputs": [
        {
          "indexed": true,
          "internalType": "address",
          "name": "owner",
          "type": "address"
        },
        {
          "indexed": true,
          "internalType": "address",
          "name": "approved",
          "type": "address"
        },
        {
          "indexed": true,
          "internalType": "uint256",
          "name": "tokenId",
          "type": "uint256"
        }
      ],
      "name": "Approval",
      "type": "event"
    },
    {
      "anonymous": false,
      "inputs": [
        {
          "indexed": true,
          "internalType": "address",
          "name": "owner",
          "type": "address"
        },
        {
          "indexed": true,
          "internalType": "address",
          "name": "operator",
          "type": "address"
        },
        {
          "indexed": false,
          "internalType": "bool",
          "name": "approved",
          "type": "bool"
        }
      ],
      "name": "ApprovalForAll",
      "type": "event"
    },
    {
      "anonymous": false,
      "inputs": [
        {
          "indexed": true,
          "internalType": "address",
          "name": "previousOwner",
          "type": "address"
        },
        {
          "indexed": true,
          "internalType": "address",
          "name": "newOwner",
          "type": "address"
        }
      ],
      "name": "OwnershipTransferred",
      "type": "event"
    },
    {
      "anonymous": false,
      "inputs": [
        {
          "indexed": true,
          "internalType": "address",
          "name": "from",
          "type": "address"
        },
        {
          "indexed": true,
          "internalType": "address",
          "name": "to",
          "type": "address"
        },
        {
          "indexed": true,
          "internalType": "uint256",
          "name": "tokenId",
          "type": "uint256"
        }
      ],
      "name": "Transfer",
      "type": "event"
    },
    {
      "inputs": [
        {
          "internalType": "address",
          "name": "to",
          "type": "address"
        },
        {
          "internalType": "uint256",
          "name": "tokenId",
          "type": "uint256"
        }
      ],
      "name": "approve",
      "outputs": [],
      "stateMutability": "nonpayable",
      "type": "function"
    },
    {
      "inputs": [
        {
          "internalType": "address",
          "name": "owner",
          "type": "address"
        }
      ],
      "name": "balanceOf",
      "outputs": [
        {
          "internalType": "uint256",
          "name": "",
          "type": "uint256"
        }
      ],
      "stateMutability": "view",
      "type": "function",
      "constant": true
    },
    {
      "inputs": [
        {
          "internalType": "uint256",
          "name": "tokenId",
          "type": "uint256"
        }
      ],
      "name": "getApproved",
      "outputs": [
        {
          "internalType": "address",
          "name": "",
          "type": "address"
        }
      ],
      "stateMutability": "view",
      "type": "function",
      "constant": true
    },
    {
      "inputs": [
        {
          "internalType": "address",
          "name": "owner",
          "type": "address"
        },
        {
          "internalType": "address",
          "name": "operator",
          "type": "address"
        }
      ],
      "name": "isApprovedForAll",
      "outputs": [
        {
          "internalType": "bool",
          "name": "",
          "type": "bool"
        }
      ],
      "stateMutability": "view",
      "type": "function",
      "constant": true
    },
    {
      "inputs": [],
      "name": "name",
      "outputs": [
        {
          "internalType": "string",
          "name": "",
          "type": "string"
        }
      ],
      "stateMutability": "view",
      "type": "function",
      "constant": true
    },
    {
      "inputs": [],
      "name": "owner",
      "outputs": [
        {
          "internalType": "address",
          "name": "",
          "type": "address"
        }
      ],
      "stateMutability": "view",
      "type": "function",
      "constant": true
    },
    {
      "inputs": [
        {
          "internalType": "uint256",
          "name": "tokenId",
          "type": "uint256"
        }
      ],
      "name": "ownerOf",
      "outputs": [
        {
          "internalType": "address",
          "name": "",
          "type": "address"
        }
      ],
      "stateMutability": "view",
      "type": "function",
      "constant": true
    },
    {
      "inputs": [],
      "name": "renounceOwnership",
      "outputs": [],
      "stateMutability": "nonpayable",
      "type": "function"
    },
    {
      "inputs": [
        {
          "internalType": "address",
          "name": "from",
          "type": "address"
        },
        {
          "internalType": "address",
          "name": "to",
          "type": "address"
        },
        {
          "internalType": "uint256",
          "name": "tokenId",
          "type": "uint256"
        }
      ],
      "name": "safeTransferFrom",
      "outputs": [],
      "stateMutability": "nonpayable",
      "type": "function"
    },
    {
      "inputs": [
        {
          "internalType": "address",
          "name": "from",
          "type": "address"
        },
        {
          "internalType": "address",
          "name": "to",
          "type": "address"
        },
        {
          "internalType": "uint256",
          "name": "tokenId",
          "type": "uint256"
        },
        {
          "internalType": "bytes",
          "name": "_data",
          "type": "bytes"
        }
      ],
      "name": "safeTransferFrom",
      "outputs": [],
      "stateMutability": "nonpayable",
      "type": "function"
    },
    {
      "inputs": [
        {
          "internalType": "address",
          "name": "operator",
          "type": "address"
        },
        {
          "internalType": "bool",
          "name": "approved",
          "type": "bool"
        }
      ],
      "name": "setApprovalForAll",
      "outputs": [],
      "stateMutability": "nonpayable",
      "type": "function"
    },
    {
      "inputs": [],
      "name": "symbol",
      "outputs": [
        {
          "internalType": "string",
          "name": "",
          "type": "string"
        }
      ],
      "stateMutability": "view",
      "type": "function",
      "constant": true
    },
    {
      "inputs": [
        {
          "internalType": "uint256",
          "name": "index",
          "type": "uint256"
        }
      ],
      "name": "tokenByIndex",
      "outputs": [
        {
          "internalType": "uint256",
          "name": "",
          "type": "uint256"
        }
      ],
      "stateMutability": "view",
      "type": "function",
      "constant": true
    },
    {
      "inputs": [
        {
          "internalType": "address",
          "name": "owner",
          "type": "address"
        },
        {
          "internalType": "uint256",
          "name": "index",
          "type": "uint256"
        }
      ],
      "name": "tokenOfOwnerByIndex",
      "outputs": [
        {
          "internalType": "uint256",
          "name": "",
          "type": "uint256"
        }
      ],
      "stateMutability": "view",
      "type": "function",
      "constant": true
    },
    {
      "inputs": [],
      "name": "totalSupply",
      "outputs": [
        {
          "internalType": "uint256",
          "name": "",
          "type": "uint256"
        }
      ],
      "stateMutability": "view",
      "type": "function",
      "constant": true
    },
    {
      "inputs": [
        {
          "internalType": "address",
          "name": "from",
          "type": "address"
        },
        {
          "internalType": "address",
          "name": "to",
          "type": "address"
        },
        {
          "internalType": "uint256",
          "name": "tokenId",
          "type": "uint256"
        }
      ],
      "name": "transferFrom",
      "outputs": [],
      "stateMutability": "nonpayable",
      "type": "function"
    },
    {
      "inputs": [
        {
          "internalType": "address",
          "name": "newOwner",
          "type": "address"
        }
      ],
      "name": "transferOwnership",
      "outputs": [],
      "stateMutability": "nonpayable",
      "type": "function"
    },
    {
      "inputs": [
        {
          "internalType": "uint256",
          "name": "tokenId",
          "type": "uint256"
        }
      ],
      "name": "tokenURI",
      "outputs": [
        {
          "internalType": "string",
          "name": "",
          "type": "string"
        }
      ],
      "stateMutability": "view",
      "type": "function",
      "constant": true
    },
    {
      "inputs": [
        {
          "internalType": "bytes4",
          "name": "interfaceId",
          "type": "bytes4"
        }
      ],
      "name": "supportsInterface",
      "outputs": [
        {
          "internalType": "bool",
          "name": "",
          "type": "bool"
        }
      ],
      "stateMutability": "view",
      "type": "function",
      "constant": true
    },
    {
      "inputs": [
        {
          "internalType": "address",
          "name": "receiver",
          "type": "address"
        },
        {
          "internalType": "string",
          "name": "tokenURI",
          "type": "string"
        }
      ],
      "name": "mintNft",
      "outputs": [
        {
          "internalType": "uint256",
          "name": "",
          "type": "uint256"
        }
      ],
      "stateMutability": "nonpayable",
      "type": "function"
    },
    {
      "inputs": [
        {
          "internalType": "uint256",
          "name": "tokenId",
          "type": "uint256"
        }
      ],
      "name": "burnNft",
      "outputs": [],
      "stateMutability": "nonpayable",
      "type": "function"
    },
    {
      "inputs": [
        {
          "internalType": "uint256",
          "name": "tokenId",
          "type": "uint256"
        },
        {
          "internalType": "string",
          "name": "tokenURI",
          "type": "string"
        }
      ],
      "name": "updateTokenURI",
      "outputs": [],
      "stateMutability": "nonpayable",
      "type": "function"
    }
  ],
  "bytecode": "0x60806040523480156200001157600080fd5b506040805180820182526004808252632121292d60e11b6020808401828152855180870190965292855284015281519192916200005191600091620000eb565b50805162000067906001906020840190620000eb565b505050620000846200007e6200009560201b60201c565b62000099565b6200008f3362000099565b620001ce565b3390565b600b80546001600160a01b038381166001600160a01b0319831681179093556040519116919082907f8be0079c531659141344cd1fd0a4f28419497f9722a3daafe3b4186f6b6457e090600090a35050565b828054620000f99062000191565b90600052602060002090601f0160209004810192826200011d576000855562000168565b82601f106200013857805160ff191683800117855562000168565b8280016001018555821562000168579182015b82811115620001685782518255916020019190600101906200014b565b50620001769291506200017a565b5090565b5b808211156200017657600081556001016200017b565b600281046001821680620001a657607f821691505b60208210811415620001c857634e487b7160e01b600052602260045260246000fd5b50919050565b61202480620001de6000396000f3fe608060405234801561001057600080fd5b50600436106101425760003560e01c80634f6ccce7116100b857806395d89b411161007c57806395d89b411461028a578063a22cb46514610292578063b88d4fde146102a5578063c87b56dd146102b8578063e985e9c5146102cb578063f2fde38b146102de57610142565b80634f6ccce7146102415780636352211e1461025457806370a0823114610267578063715018a61461027a5780638da5cb5b1461028257610142565b806318160ddd1161010a57806318160ddd146101da57806318e97fd1146101e257806323b872dd146101f55780632f745c59146102085780633d5efefe1461021b57806342842e0e1461022e57610142565b806301ffc9a71461014757806306fdde0314610170578063081812fc14610185578063095ea7b3146101a557806311f87b19146101ba575b600080fd5b61015a6101553660046117cf565b6102f1565b60405161016791906118fa565b60405180910390f35b610178610304565b6040516101679190611905565b610198610193366004611807565b610396565b60405161016791906118a9565b6101b86101b33660046117a6565b6103e2565b005b6101cd6101c836600461175a565b61047a565b6040516101679190611eb4565b6101cd6104af565b6101b86101f036600461181f565b6104b5565b6101b861020336600461166c565b610502565b6101cd6102163660046117a6565b61053a565b6101b8610229366004611807565b61058c565b6101b861023c36600461166c565b6105d7565b6101cd61024f366004611807565b6105f2565b610198610262366004611807565b61064d565b6101cd610275366004611620565b610682565b6101b86106c6565b610198610711565b610178610720565b6101b86102a0366004611720565b61072f565b6101b86102b33660046116a7565b610741565b6101786102c6366004611807565b610780565b61015a6102d936600461163a565b61078b565b6101b86102ec366004611620565b6107b9565b60006102fc82610827565b90505b919050565b60606000805461031390611f2c565b80601f016020809104026020016040519081016040528092919081815260200182805461033f90611f2c565b801561038c5780601f106103615761010080835404028352916020019161038c565b820191906000526020600020905b81548152906001019060200180831161036f57829003601f168201915b5050505050905090565b60006103a18261084c565b6103c65760405162461bcd60e51b81526004016103bd90611cbd565b60405180910390fd5b506000908152600460205260409020546001600160a01b031690565b60006103ed8261064d565b9050806001600160a01b0316836001600160a01b031614156104215760405162461bcd60e51b81526004016103bd90611dd6565b806001600160a01b0316610433610869565b6001600160a01b0316148061044f575061044f816102d9610869565b61046b5760405162461bcd60e51b81526004016103bd90611af9565b610475838361086d565b505050565b6000610486600c6108db565b6000610492600c6108e4565b905061049e84826108e8565b6104a881846109c7565b9392505050565b60085490565b6104bd610869565b6001600160a01b03166104ce610711565b6001600160a01b0316146104f45760405162461bcd60e51b81526004016103bd90611d09565b6104fe82826109c7565b5050565b61051361050d610869565b82610a0b565b61052f5760405162461bcd60e51b81526004016103bd90611e17565b610475838383610a90565b600061054583610682565b82106105635760405162461bcd60e51b81526004016103bd90611918565b506001600160a01b03919091166000908152600660209081526040808320938352929052205490565b610594610869565b6001600160a01b03166105a5610711565b6001600160a01b0316146105cb5760405162461bcd60e51b81526004016103bd90611d09565b6105d481610bbd565b50565b61047583838360405180602001604052806000815250610741565b60006105fc6104af565b821061061a5760405162461bcd60e51b81526004016103bd90611e68565b6008828154811061063b57634e487b7160e01b600052603260045260246000fd5b90600052602060002001549050919050565b6000818152600260205260408120546001600160a01b0316806102fc5760405162461bcd60e51b81526004016103bd90611ba0565b60006001600160a01b0382166106aa5760405162461bcd60e51b81526004016103bd90611b56565b506001600160a01b031660009081526003602052604090205490565b6106ce610869565b6001600160a01b03166106df610711565b6001600160a01b0316146107055760405162461bcd60e51b81526004016103bd90611d09565b61070f6000610bc6565b565b600b546001600160a01b031690565b60606001805461031390611f2c565b6104fe61073a610869565b8383610c18565b61075261074c610869565b83610a0b565b61076e5760405162461bcd60e51b81526004016103bd90611e17565b61077a84848484610cbb565b50505050565b60606102fc82610cee565b6001600160a01b03918216600090815260056020908152604080832093909416825291909152205460ff1690565b6107c1610869565b6001600160a01b03166107d2610711565b6001600160a01b0316146107f85760405162461bcd60e51b81526004016103bd90611d09565b6001600160a01b03811661081e5760405162461bcd60e51b81526004016103bd906119b5565b6105d481610bc6565b60006001600160e01b0319821663780e9d6360e01b14806102fc57506102fc82610e07565b6000908152600260205260409020546001600160a01b0316151590565b3390565b600081815260046020526040902080546001600160a01b0319166001600160a01b03841690811790915581906108a28261064d565b6001600160a01b03167f8c5be1e5ebec7d5bd14f71427d1e84f3dd0314c0f7b2291e5b200ac8c7c3b92560405160405180910390a45050565b80546001019055565b5490565b6001600160a01b03821661090e5760405162461bcd60e51b81526004016103bd90611c37565b6109178161084c565b156109345760405162461bcd60e51b81526004016103bd906119fb565b61094060008383610e47565b6001600160a01b0382166000908152600360205260408120805460019290610969908490611ebd565b909155505060008181526002602052604080822080546001600160a01b0319166001600160a01b03861690811790915590518392907fddf252ad1be2c89b69c2b068fc378daa952ba7f163c4a11628f55a4df523b3ef908290a45050565b6109d08261084c565b6109ec5760405162461bcd60e51b81526004016103bd90611be9565b6000828152600a602090815260409091208251610475928401906114a9565b6000610a168261084c565b610a325760405162461bcd60e51b81526004016103bd90611aad565b6000610a3d8361064d565b9050806001600160a01b0316846001600160a01b03161480610a785750836001600160a01b0316610a6d84610396565b6001600160a01b0316145b80610a885750610a88818561078b565b949350505050565b826001600160a01b0316610aa38261064d565b6001600160a01b031614610ac95760405162461bcd60e51b81526004016103bd90611d3e565b6001600160a01b038216610aef5760405162461bcd60e51b81526004016103bd90611a32565b610afa838383610e47565b610b0560008261086d565b6001600160a01b0383166000908152600360205260408120805460019290610b2e908490611ee9565b90915550506001600160a01b0382166000908152600360205260408120805460019290610b5c908490611ebd565b909155505060008181526002602052604080822080546001600160a01b0319166001600160a01b0386811691821790925591518493918716917fddf252ad1be2c89b69c2b068fc378daa952ba7f163c4a11628f55a4df523b3ef91a4505050565b6105d481610e52565b600b80546001600160a01b038381166001600160a01b0319831681179093556040519116919082907f8be0079c531659141344cd1fd0a4f28419497f9722a3daafe3b4186f6b6457e090600090a35050565b816001600160a01b0316836001600160a01b03161415610c4a5760405162461bcd60e51b81526004016103bd90611a76565b6001600160a01b0383811660008181526005602090815260408083209487168084529490915290819020805460ff1916851515179055517f17307eab39ab6107e8899845ad3d59bd9653f200f220920489ca2b5937696c3190610cae9085906118fa565b60405180910390a3505050565b610cc6848484610a90565b610cd284848484610e92565b61077a5760405162461bcd60e51b81526004016103bd90611963565b6060610cf98261084c565b610d155760405162461bcd60e51b81526004016103bd90611c6c565b6000828152600a602052604081208054610d2e90611f2c565b80601f0160208091040260200160405190810160405280929190818152602001828054610d5a90611f2c565b8015610da75780601f10610d7c57610100808354040283529160200191610da7565b820191906000526020600020905b815481529060010190602001808311610d8a57829003601f168201915b505050505090506000610db8610fad565b9050805160001415610dcc575090506102ff565b815115610dfe578082604051602001610de692919061187a565b604051602081830303815290604052925050506102ff565b610a8884610fbf565b60006001600160e01b031982166380ac58cd60e01b1480610e3857506001600160e01b03198216635b5e139f60e01b145b806102fc57506102fc82611041565b61047583838361105a565b610e5b816110e3565b6000818152600a602052604090208054610e7490611f2c565b1590506105d4576000818152600a602052604081206105d49161152d565b6000610ea6846001600160a01b031661118a565b15610fa257836001600160a01b031663150b7a02610ec2610869565b8786866040518563ffffffff1660e01b8152600401610ee494939291906118bd565b602060405180830381600087803b158015610efe57600080fd5b505af1925050508015610f2e575060408051601f3d908101601f19168201909252610f2b918101906117eb565b60015b610f88573d808015610f5c576040519150601f19603f3d011682016040523d82523d6000602084013e610f61565b606091505b508051610f805760405162461bcd60e51b81526004016103bd90611963565b805181602001fd5b6001600160e01b031916630a85bd0160e11b149050610a88565b506001949350505050565b60408051602081019091526000815290565b6060610fca8261084c565b610fe65760405162461bcd60e51b81526004016103bd90611d87565b6000610ff0610fad565b9050600081511161101057604051806020016040528060008152506104a8565b8061101a84611190565b60405160200161102b92919061187a565b6040516020818303038152906040529392505050565b6001600160e01b031981166301ffc9a760e01b14919050565b611065838383610475565b6001600160a01b0383166110815761107c816112ab565b6110a4565b816001600160a01b0316836001600160a01b0316146110a4576110a483826112ef565b6001600160a01b0382166110c0576110bb8161138c565b610475565b826001600160a01b0316826001600160a01b031614610475576104758282611465565b60006110ee8261064d565b90506110fc81600084610e47565b61110760008361086d565b6001600160a01b0381166000908152600360205260408120805460019290611130908490611ee9565b909155505060008281526002602052604080822080546001600160a01b0319169055518391906001600160a01b038416907fddf252ad1be2c89b69c2b068fc378daa952ba7f163c4a11628f55a4df523b3ef908390a45050565b3b151590565b6060816111b557506040805180820190915260018152600360fc1b60208201526102ff565b8160005b81156111df57806111c981611f67565b91506111d89050600a83611ed5565b91506111b9565b60008167ffffffffffffffff81111561120857634e487b7160e01b600052604160045260246000fd5b6040519080825280601f01601f191660200182016040528015611232576020820181803683370190505b5090505b8415610a8857611247600183611ee9565b9150611254600a86611f82565b61125f906030611ebd565b60f81b81838151811061128257634e487b7160e01b600052603260045260246000fd5b60200101906001600160f81b031916908160001a9053506112a4600a86611ed5565b9450611236565b600880546000838152600960205260408120829055600182018355919091527ff3f7a9fe364faab93b216da50a3214154f22a0a2b415b23a84c8169e8b636ee30155565b600060016112fc84610682565b6113069190611ee9565b600083815260076020526040902054909150808214611359576001600160a01b03841660009081526006602090815260408083208584528252808320548484528184208190558352600790915290208190555b5060009182526007602090815260408084208490556001600160a01b039094168352600681528383209183525290812055565b60085460009061139e90600190611ee9565b600083815260096020526040812054600880549394509092849081106113d457634e487b7160e01b600052603260045260246000fd5b90600052602060002001549050806008838154811061140357634e487b7160e01b600052603260045260246000fd5b600091825260208083209091019290925582815260099091526040808220849055858252812055600880548061144957634e487b7160e01b600052603160045260246000fd5b6001900381819060005260206000200160009055905550505050565b600061147083610682565b6001600160a01b039093166000908152600660209081526040808320868452825280832085905593825260079052919091209190915550565b8280546114b590611f2c565b90600052602060002090601f0160209004810192826114d7576000855561151d565b82601f106114f057805160ff191683800117855561151d565b8280016001018555821561151d579182015b8281111561151d578251825591602001919060010190611502565b50611529929150611565565b5090565b50805461153990611f2c565b6000825580601f1061154b57506105d4565b601f0160209004906000526020600020908101906105d491905b5b808211156115295760008155600101611566565b600067ffffffffffffffff8084111561159557611595611fc2565b604051601f8501601f1916810160200182811182821017156115b9576115b9611fc2565b6040528481529150818385018610156115d157600080fd5b8484602083013760006020868301015250509392505050565b80356001600160a01b03811681146102ff57600080fd5b600082601f830112611611578081fd5b6104a88383356020850161157a565b600060208284031215611631578081fd5b6104a8826115ea565b6000806040838503121561164c578081fd5b611655836115ea565b9150611663602084016115ea565b90509250929050565b600080600060608486031215611680578081fd5b611689846115ea565b9250611697602085016115ea565b9150604084013590509250925092565b600080600080608085870312156116bc578081fd5b6116c5856115ea565b93506116d3602086016115ea565b925060408501359150606085013567ffffffffffffffff8111156116f5578182fd5b8501601f81018713611705578182fd5b6117148782356020840161157a565b91505092959194509250565b60008060408385031215611732578182fd5b61173b836115ea565b91506020830135801515811461174f578182fd5b809150509250929050565b6000806040838503121561176c578182fd5b611775836115ea565b9150602083013567ffffffffffffffff811115611790578182fd5b61179c85828601611601565b9150509250929050565b600080604083850312156117b8578182fd5b6117c1836115ea565b946020939093013593505050565b6000602082840312156117e0578081fd5b81356104a881611fd8565b6000602082840312156117fc578081fd5b81516104a881611fd8565b600060208284031215611818578081fd5b5035919050565b60008060408385031215611831578182fd5b82359150602083013567ffffffffffffffff811115611790578182fd5b60008151808452611866816020860160208601611f00565b601f01601f19169290920160200192915050565b6000835161188c818460208801611f00565b8351908301906118a0818360208801611f00565b01949350505050565b6001600160a01b0391909116815260200190565b6001600160a01b03858116825284166020820152604081018390526080606082018190526000906118f09083018461184e565b9695505050505050565b901515815260200190565b6000602082526104a8602083018461184e565b6020808252602b908201527f455243373231456e756d657261626c653a206f776e657220696e646578206f7560408201526a74206f6620626f756e647360a81b606082015260800190565b60208082526032908201527f4552433732313a207472616e7366657220746f206e6f6e20455243373231526560408201527131b2b4bb32b91034b6b83632b6b2b73a32b960711b606082015260800190565b60208082526026908201527f4f776e61626c653a206e6577206f776e657220697320746865207a65726f206160408201526564647265737360d01b606082015260800190565b6020808252601c908201527f4552433732313a20746f6b656e20616c7265616479206d696e74656400000000604082015260600190565b60208082526024908201527f4552433732313a207472616e7366657220746f20746865207a65726f206164646040820152637265737360e01b606082015260800190565b60208082526019908201527f4552433732313a20617070726f766520746f2063616c6c657200000000000000604082015260600190565b6020808252602c908201527f4552433732313a206f70657261746f7220717565727920666f72206e6f6e657860408201526b34b9ba32b73a103a37b5b2b760a11b606082015260800190565b60208082526038908201527f4552433732313a20617070726f76652063616c6c6572206973206e6f74206f7760408201527f6e6572206e6f7220617070726f76656420666f7220616c6c0000000000000000606082015260800190565b6020808252602a908201527f4552433732313a2062616c616e636520717565727920666f7220746865207a65604082015269726f206164647265737360b01b606082015260800190565b60208082526029908201527f4552433732313a206f776e657220717565727920666f72206e6f6e657869737460408201526832b73a103a37b5b2b760b91b606082015260800190565b6020808252602e908201527f45524337323155524953746f726167653a2055524920736574206f66206e6f6e60408201526d32bc34b9ba32b73a103a37b5b2b760911b606082015260800190565b6020808252818101527f4552433732313a206d696e7420746f20746865207a65726f2061646472657373604082015260600190565b60208082526031908201527f45524337323155524953746f726167653a2055524920717565727920666f72206040820152703737b732bc34b9ba32b73a103a37b5b2b760791b606082015260800190565b6020808252602c908201527f4552433732313a20617070726f76656420717565727920666f72206e6f6e657860408201526b34b9ba32b73a103a37b5b2b760a11b606082015260800190565b6020808252818101527f4f776e61626c653a2063616c6c6572206973206e6f7420746865206f776e6572604082015260600190565b60208082526029908201527f4552433732313a207472616e73666572206f6620746f6b656e2074686174206960408201526839903737ba1037bbb760b91b606082015260800190565b6020808252602f908201527f4552433732314d657461646174613a2055524920717565727920666f72206e6f60408201526e3732bc34b9ba32b73a103a37b5b2b760891b606082015260800190565b60208082526021908201527f4552433732313a20617070726f76616c20746f2063757272656e74206f776e656040820152603960f91b606082015260800190565b60208082526031908201527f4552433732313a207472616e736665722063616c6c6572206973206e6f74206f6040820152701ddb995c881b9bdc88185c1c1c9bdd9959607a1b606082015260800190565b6020808252602c908201527f455243373231456e756d657261626c653a20676c6f62616c20696e646578206f60408201526b7574206f6620626f756e647360a01b606082015260800190565b90815260200190565b60008219821115611ed057611ed0611f96565b500190565b600082611ee457611ee4611fac565b500490565b600082821015611efb57611efb611f96565b500390565b60005b83811015611f1b578181015183820152602001611f03565b8381111561077a5750506000910152565b600281046001821680611f4057607f821691505b60208210811415611f6157634e487b7160e01b600052602260045260246000fd5b50919050565b6000600019821415611f7b57611f7b611f96565b5060010190565b600082611f9157611f91611fac565b500690565b634e487b7160e01b600052601160045260246000fd5b634e487b7160e01b600052601260045260246000fd5b634e487b7160e01b600052604160045260246000fd5b6001600160e01b0319811681146105d457600080fdfea26469706673582212206272bf49ded0bcc9a135b56faf0b9f4e5a4836a7ef6f856dac1b833d5e04368764736f6c63430008000033",
  "immutableReferences": {},
  "source": "// SPDX-License-Identifier: MIT\npragma solidity >=0.4.22 <0.9.0;\n\nimport \"@openzeppelin/contracts/token/ERC721/extensions/ERC721URIStorage.sol\";\nimport \"@openzeppelin/contracts/token/ERC721/extensions/ERC721Enumerable.sol\";\nimport \"@openzeppelin/contracts/utils/Counters.sol\";\nimport \"./Ownable.sol\";\n\ncontract Bitbrowze is ERC721Enumerable, ERC721URIStorage, Ownable {\n\n  using Counters for Counters.Counter;\n  Counters.Counter private _tokenIds;\n\n  constructor() ERC721(\"BBRZ\", \"BBRZ\") {\n    _setOwner(msg.sender);\n  }\n\n  function _beforeTokenTransfer(address from, address to, uint256 tokenId)\n      internal\n      override(ERC721, ERC721Enumerable)\n  {\n      super._beforeTokenTransfer(from, to, tokenId);\n  }\n\n  function _burn(uint256 tokenId) internal override(ERC721, ERC721URIStorage) {\n      super._burn(tokenId);\n  }\n\n  function tokenURI(uint256 tokenId)\n      public\n      view\n      override(ERC721, ERC721URIStorage)\n      returns (string memory)\n  {\n      return super.tokenURI(tokenId);\n  }\n\n  function supportsInterface(bytes4 interfaceId)\n      public\n      view\n      override(ERC721, ERC721Enumerable)\n      returns (bool)\n  {\n      return super.supportsInterface(interfaceId);\n  }\n\n  function mintNft(address receiver, string memory tokenURI) public returns (uint256) {\n    _tokenIds.increment();\n\n    uint256 newNftTokenId = _tokenIds.current();\n    _mint(receiver, newNftTokenId);\n    _setTokenURI(newNftTokenId, tokenURI);\n\n    return newNftTokenId;\n  }\n\n  function burnNft(uint256 tokenId) external onlyOwner {\n    _burn(tokenId);\n  }\n\n  function updateTokenURI(uint256 tokenId, string memory tokenURI) external onlyOwner {\n    _setTokenURI(tokenId, tokenURI);\n  }\n}",
  "sourcePath": "/home/dev82/Documents/Deployment/vikas/contracts/Bitbrowze.sol",
  "compiler": {
    "name": "solc",
    "version": "0.8.0+commit.c7dfd78e.Emscripten.clang"
  },
  "schemaVersion": "3.3.4",
  "updatedAt": "2022-02-17T05:03:44.232Z",
  "networkType": "ethereum",
  "devdoc": {
    "kind": "dev",
    "methods": {
      "approve(address,uint256)": {
        "details": "See {IERC721-approve}."
      },
      "balanceOf(address)": {
        "details": "See {IERC721-balanceOf}."
      },
      "getApproved(uint256)": {
        "details": "See {IERC721-getApproved}."
      },
      "isApprovedForAll(address,address)": {
        "details": "See {IERC721-isApprovedForAll}."
      },
      "name()": {
        "details": "See {IERC721Metadata-name}."
      },
      "owner()": {
        "details": "Returns the address of the current owner."
      },
      "ownerOf(uint256)": {
        "details": "See {IERC721-ownerOf}."
      },
      "renounceOwnership()": {
        "details": "Leaves the contract without owner. It will not be possible to call `onlyOwner` functions anymore. Can only be called by the current owner. NOTE: Renouncing ownership will leave the contract without an owner, thereby removing any functionality that is only available to the owner."
      },
      "safeTransferFrom(address,address,uint256)": {
        "details": "See {IERC721-safeTransferFrom}."
      },
      "safeTransferFrom(address,address,uint256,bytes)": {
        "details": "See {IERC721-safeTransferFrom}."
      },
      "setApprovalForAll(address,bool)": {
        "details": "See {IERC721-setApprovalForAll}."
      },
      "symbol()": {
        "details": "See {IERC721Metadata-symbol}."
      },
      "tokenByIndex(uint256)": {
        "details": "See {IERC721Enumerable-tokenByIndex}."
      },
      "tokenOfOwnerByIndex(address,uint256)": {
        "details": "See {IERC721Enumerable-tokenOfOwnerByIndex}."
      },
      "totalSupply()": {
        "details": "See {IERC721Enumerable-totalSupply}."
      },
      "transferFrom(address,address,uint256)": {
        "details": "See {IERC721-transferFrom}."
      },
      "transferOwnership(address)": {
        "details": "Transfers ownership of the contract to a new account (`newOwner`). Can only be called by the current owner."
      }
    },
    "version": 1
  },
  "userdoc": {
    "kind": "user",
    "methods": {},
    "version": 1
  }
}